{
  "contractName": "EtherUnits",
  "abi": [
    {
      "constant": true,
      "inputs": [],
      "name": "oneWei",
      "outputs": [
        {
          "name": "",
          "type": "uint256"
        }
      ],
      "payable": false,
      "stateMutability": "view",
      "type": "function"
    },
    {
      "constant": true,
      "inputs": [],
      "name": "oneEther",
      "outputs": [
        {
          "name": "",
          "type": "uint256"
        }
      ],
      "payable": false,
      "stateMutability": "view",
      "type": "function"
    },
    {
      "constant": true,
      "inputs": [],
      "name": "testOneWei",
      "outputs": [
        {
          "name": "",
          "type": "bool"
        }
      ],
      "payable": false,
      "stateMutability": "pure",
      "type": "function"
    },
    {
      "constant": true,
      "inputs": [],
      "name": "testOneEther",
      "outputs": [
        {
          "name": "",
          "type": "bool"
        }
      ],
      "payable": false,
      "stateMutability": "pure",
      "type": "function"
    }
  ],
  "bytecode": "0x60806040526001600055670de0b6b3a764000060015534801561002157600080fd5b50610143806100316000396000f3fe608060405234801561001057600080fd5b5060043610610069576000357c0100000000000000000000000000000000000000000000000000000000900480633173d5891461006e5780634fb2e0be14610090578063a1b1df9c146100ae578063d297a89f146100d0575b600080fd5b6100766100ee565b604051808215151515815260200191505060405180910390f35b610098610100565b6040518082815260200191505060405180910390f35b6100b6610106565b604051808215151515815260200191505060405180910390f35b6100d8610111565b6040518082815260200191505060405180910390f35b6000670de0b6b3a76400008014905090565b60005481565b600060018014905090565b6001548156fea165627a7a72305820dc08306642bf8171bbeba552d779121ff5a01441bf9ddbd108d8f5e664e8c31a0029",
  "source": "pragma solidity ^0.5.3;\r\n\r\ncontract EtherUnits{\r\n    uint public oneWei = 1 wei;\r\n    uint public oneEther = 1 ether;\r\n\r\n    function testOneWei() public pure returns(bool){\r\n        return 1 wei == 1;\r\n    }\r\n\r\n    function testOneEther() public pure returns(bool){\r\n        return 1 ether == 1e18 wei;\r\n    }\r\n}\r\n\r\n//Go to GitBash\r\n//$ truffle console\r\n//truffle(ganache)>     let converter = {};\r\n//undefined\r\n//truffle(ganache)>     truffle(ganache)> EtherUnits.deployed().then((_converter) => converter = _converter);\r\n//...\r\n//truffle(ganache)>     converter.testOneWei()\r\n//true\r\n//truffle(ganache)>     converter.testOneEther()\r\n//true\r\n//\r\n//\r\n",
  "sourcePath": "C:/Users/Owner/solidity_learning/contracts/EtherUnits.sol",
  "compiler": {
    "name": "solc",
    "version": "0.5.3+commit.10d17f24.Emscripten.clang"
  },
  "schemaVersion": "3.4.1",
  "updatedAt": "2021-06-01T18:32:16.431Z",
  "devdoc": {
    "methods": {}
  },
  "userdoc": {
    "methods": {}
  }
}