{
  "contractName": "FunctionModifier",
  "abi": [
    {
      "constant": true,
      "inputs": [],
      "name": "x",
      "outputs": [
        {
          "name": "",
          "type": "uint256"
        }
      ],
      "payable": false,
      "stateMutability": "view",
      "type": "function"
    },
    {
      "constant": true,
      "inputs": [],
      "name": "owner",
      "outputs": [
        {
          "name": "",
          "type": "address"
        }
      ],
      "payable": false,
      "stateMutability": "view",
      "type": "function"
    },
    {
      "inputs": [],
      "payable": false,
      "stateMutability": "nonpayable",
      "type": "constructor"
    },
    {
      "constant": false,
      "inputs": [
        {
          "name": "_newOwner",
          "type": "address"
        }
      ],
      "name": "changeOwner",
      "outputs": [],
      "payable": false,
      "stateMutability": "nonpayable",
      "type": "function"
    },
    {
      "constant": false,
      "inputs": [
        {
          "name": "i",
          "type": "uint256"
        }
      ],
      "name": "decrement",
      "outputs": [],
      "payable": false,
      "stateMutability": "nonpayable",
      "type": "function"
    }
  ],
  "bytecode": "0x6080604052600a60015534801561001557600080fd5b50336000806101000a81548173ffffffffffffffffffffffffffffffffffffffff021916908373ffffffffffffffffffffffffffffffffffffffff160217905550610431806100656000396000f3fe608060405234801561001057600080fd5b5060043610610069576000357c0100000000000000000000000000000000000000000000000000000000900480630c55699c1461006e5780633a9ebefd1461008c5780638da5cb5b146100ba578063a6f9dae114610104575b600080fd5b610076610148565b6040518082815260200191505060405180910390f35b6100b8600480360360208110156100a257600080fd5b810190808035906020019092919050505061014e565b005b6100c2610232565b604051808273ffffffffffffffffffffffffffffffffffffffff1673ffffffffffffffffffffffffffffffffffffffff16815260200191505060405180910390f35b6101466004803603602081101561011a57600080fd5b81019080803573ffffffffffffffffffffffffffffffffffffffff169060200190929190505050610257565b005b60015481565b600260009054906101000a900460ff161515156101d3576040517f08c379a00000000000000000000000000000000000000000000000000000000081526004018080602001828103825260068152602001807f4c6f636b6564000000000000000000000000000000000000000000000000000081525060200191505060405180910390fd5b6001600260006101000a81548160ff021916908315150217905550806001600082825403925050819055506001811115610214576102136001820361014e565b5b6000600260006101000a81548160ff02191690831515021790555050565b6000809054906101000a900473ffffffffffffffffffffffffffffffffffffffff1681565b6000809054906101000a900473ffffffffffffffffffffffffffffffffffffffff1673ffffffffffffffffffffffffffffffffffffffff163373ffffffffffffffffffffffffffffffffffffffff1614151561031b576040517f08c379a00000000000000000000000000000000000000000000000000000000081526004018080602001828103825260098152602001807f4e6f74206f776e6572000000000000000000000000000000000000000000000081525060200191505060405180910390fd5b80600073ffffffffffffffffffffffffffffffffffffffff168173ffffffffffffffffffffffffffffffffffffffff16141515156103c1576040517f08c379a00000000000000000000000000000000000000000000000000000000081526004018080602001828103825260118152602001807f4e6f742076616c6964206164647265737300000000000000000000000000000081525060200191505060405180910390fd5b816000806101000a81548173ffffffffffffffffffffffffffffffffffffffff021916908373ffffffffffffffffffffffffffffffffffffffff160217905550505056fea165627a7a72305820c3dfa1ad7dfea78d3df9ab7a8611106a13c6344817768d9ca33d3be014a5c9700029",
  "source": "pragma solidity ^0.5.3;\r\n\r\ncontract FunctionModifier{\r\n\r\n    address public owner;\r\n\r\n    constructor() public {\r\n        owner = msg.sender;\r\n    }\r\n\r\n    modifier onlyOwner(){\r\n        require(msg.sender == owner, \"Not owner\");\r\n        _;\r\n    }\r\n\r\n    modifier validAddress(address _addr){\r\n        require(_addr != address(0), \"Not valid address\");\r\n        _;\r\n    }\r\n\r\n    function changeOwner(address _newOwner)public onlyOwner validAddress(_newOwner){\r\n        owner = _newOwner;\r\n    }\r\n\r\n    uint public x = 10;\r\n    bool locked;\r\n\r\n    modifier noReentrancy(){\r\n        require(!locked, \"Locked\");\r\n\r\n        locked = true;\r\n        _;\r\n        locked = false;\r\n    }\r\n\r\n    function decrement(uint i) public noReentrancy {\r\n        x -= i;\r\n\r\n        if (i > 1){\r\n            decrement(i - 1);\r\n        }\r\n    }\r\n}\r\n\r\n\r\n////\r\n",
  "sourcePath": "C:/Users/Owner/Solidity_Learning/contracts/FunctionModfier.sol",
  "compiler": {
    "name": "solc",
    "version": "0.5.3+commit.10d17f24.Emscripten.clang"
  },
  "schemaVersion": "3.4.1",
  "updatedAt": "2021-06-03T02:19:20.447Z",
  "networkType": "ethereum",
  "devdoc": {
    "methods": {}
  },
  "userdoc": {
    "methods": {}
  }
}