{
  "contractName": "Gas",
  "abi": [
    {
      "constant": false,
      "inputs": [],
      "name": "testGasRefund",
      "outputs": [
        {
          "name": "",
          "type": "uint256"
        }
      ],
      "payable": false,
      "stateMutability": "nonpayable",
      "type": "function"
    }
  ],
  "bytecode": "0x6080604052348015600f57600080fd5b50609a8061001e6000396000f3fe6080604052348015600f57600080fd5b50600436106045576000357c010000000000000000000000000000000000000000000000000000000090048063bf13a85914604a575b600080fd5b60506066565b6040518082815260200191505060405180910390f35b60003a90509056fea165627a7a72305820fd5829fcaaa710422922e0366af82a08ba4aa632ab6b9e08b8b9723a6fe104a10029",
  "source": "pragma solidity ^0.5.3;\r\n\r\ncontract Gas{\r\n    function testGasRefund()public returns(uint){\r\n        return tx.gasprice;\r\n    }\r\n}\r\n\r\n//Go to GitBash\r\n//truffle(ganache)>    let gas = {};\r\n//undefined\r\n//truffle(ganache)>    Gas.deployed().then((_gas) => gas = _gas);\r\n//...\r\n//truffle(ganache)>    gas.testGasRefund()\r\n//{\r\n//  tx: '0xf2ae5691d4c6cad49a15797bb868566e6e2b934b738ebc01949a456a6bd6ebee',\r\n//  receipt: {\r\n//    transactionHash: '0xf2ae5691d4c6cad49a15797bb868566e6e2b934b738ebc01949a456a6bd6ebee',\r\n//    transactionIndex: 0,\r\n//    blockHash: '0x062977f15e53657cd0c9df44c3d236da1e4a30bd6852c8cdf8106d3ff8a42704',\r\n//    blockNumber: 17,\r\n//    from: '0x088a7cf9c560f73465855ed440abf38eb2087e65',\r\n//    to: '0x7d1321675ccdfe986d8c8a3d7fc09321691f87f0',\r\n//    gasUsed: 21259,\r\n//    cumulativeGasUsed: 21259,\r\n//    contractAddress: null,\r\n//    logs: [],\r\n//    status: true,\r\n//    logsBloom:\r\n//    ...\r\n//    rawLogs: []\r\n//  },\r\n//  logs: []\r\n// }\r\n",
  "sourcePath": "C:/Users/Owner/solidity_learning/contracts/Gas.sol",
  "compiler": {
    "name": "solc",
    "version": "0.5.3+commit.10d17f24.Emscripten.clang"
  },
  "schemaVersion": "3.4.1",
  "updatedAt": "2021-06-01T18:32:16.433Z",
  "devdoc": {
    "methods": {}
  },
  "userdoc": {
    "methods": {}
  }
}