{
  "contractName": "SimpleStorage",
  "abi": [
    {
      "constant": true,
      "inputs": [],
      "name": "text",
      "outputs": [
        {
          "name": "",
          "type": "string"
        }
      ],
      "payable": false,
      "stateMutability": "view",
      "type": "function"
    },
    {
      "constant": false,
      "inputs": [
        {
          "name": "_text",
          "type": "string"
        }
      ],
      "name": "set",
      "outputs": [],
      "payable": false,
      "stateMutability": "nonpayable",
      "type": "function"
    },
    {
      "constant": true,
      "inputs": [],
      "name": "get",
      "outputs": [
        {
          "name": "",
          "type": "string"
        }
      ],
      "payable": false,
      "stateMutability": "view",
      "type": "function"
    }
  ],
  "bytecode": "0x608060405234801561001057600080fd5b5061044f806100206000396000f3fe608060405234801561001057600080fd5b506004361061005e576000357c0100000000000000000000000000000000000000000000000000000000900480631f1bd692146100635780634ed3885e146100e65780636d4ce63c146101a1575b600080fd5b61006b610224565b6040518080602001828103825283818151815260200191508051906020019080838360005b838110156100ab578082015181840152602081019050610090565b50505050905090810190601f1680156100d85780820380516001836020036101000a031916815260200191505b509250505060405180910390f35b61019f600480360360208110156100fc57600080fd5b810190808035906020019064010000000081111561011957600080fd5b82018360208201111561012b57600080fd5b8035906020019184600183028401116401000000008311171561014d57600080fd5b91908080601f016020809104026020016040519081016040528093929190818152602001838380828437600081840152601f19601f8201169050808301925050505050505091929192905050506102c2565b005b6101a96102dc565b6040518080602001828103825283818151815260200191508051906020019080838360005b838110156101e95780820151818401526020810190506101ce565b50505050905090810190601f1680156102165780820380516001836020036101000a031916815260200191505b509250505060405180910390f35b60008054600181600116156101000203166002900480601f0160208091040260200160405190810160405280929190818152602001828054600181600116156101000203166002900480156102ba5780601f1061028f576101008083540402835291602001916102ba565b820191906000526020600020905b81548152906001019060200180831161029d57829003601f168201915b505050505081565b80600090805190602001906102d892919061037e565b5050565b606060008054600181600116156101000203166002900480601f0160208091040260200160405190810160405280929190818152602001828054600181600116156101000203166002900480156103745780601f1061034957610100808354040283529160200191610374565b820191906000526020600020905b81548152906001019060200180831161035757829003601f168201915b5050505050905090565b828054600181600116156101000203166002900490600052602060002090601f016020900481019282601f106103bf57805160ff19168380011785556103ed565b828001600101855582156103ed579182015b828111156103ec5782518255916020019190600101906103d1565b5b5090506103fa91906103fe565b5090565b61042091905b8082111561041c576000816000905550600101610404565b5090565b9056fea165627a7a723058206871e6e8b816067ebffad68fcdb4884e23a8379edabdc9ffb640f3f945ba2cf00029",
  "source": "pragma solidity ^0.5.3;\r\n\r\ncontract SimpleStorage {\r\n    string public text;\r\n\r\n    function set(string memory _text) public {                    ///Update the text variable\r\n        text = _text;\r\n    }\r\n\r\n    function get() public view returns (string memory) {          ///To get the text variable\r\n        return text;\r\n    }\r\n}\r\n// Go to GitBash and type the commands bellow\r\n// Owner@DESKTOP-IHSJ5E1 MINGW64 ~/fifa_nft\r\n// $ truffle console\r\n// truffle(ganache)>  let storage = {};\r\n// undefined\r\n// truffle(ganache)>  SimpleStorage.deployed().then((_storage) => storage = _storage);\r\n// ...\r\n// truffle(ganache)>  storage.set(\"Ball is Life\")\r\n// ...\r\n\r\n\r\n//truffle(ganache)>   storage.get()\r\n// 'Ball is Life'\r\n// truffle(ganache)>  storage.text()\r\n// 'Ball is Life'\r\n//\r\n// or go to ganache and look at contract\r\n\r\n\r\n//Use IPFS for a cheaper alternative of storing data\r\n",
  "sourcePath": "C:/Users/Owner/solidity_learning/contracts/SimpleStorage.sol",
  "compiler": {
    "name": "solc",
    "version": "0.5.3+commit.10d17f24.Emscripten.clang"
  },
  "schemaVersion": "3.4.1",
  "updatedAt": "2021-06-01T18:32:16.435Z",
  "devdoc": {
    "methods": {}
  },
  "userdoc": {
    "methods": {}
  }
}