{
  "contractName": "ViewAndPure",
  "abi": [
    {
      "constant": true,
      "inputs": [],
      "name": "x",
      "outputs": [
        {
          "name": "",
          "type": "uint256"
        }
      ],
      "payable": false,
      "stateMutability": "view",
      "type": "function"
    },
    {
      "constant": true,
      "inputs": [
        {
          "name": "y",
          "type": "uint256"
        }
      ],
      "name": "addToX",
      "outputs": [
        {
          "name": "",
          "type": "uint256"
        }
      ],
      "payable": false,
      "stateMutability": "view",
      "type": "function"
    },
    {
      "constant": true,
      "inputs": [
        {
          "name": "i",
          "type": "uint256"
        },
        {
          "name": "j",
          "type": "uint256"
        }
      ],
      "name": "add",
      "outputs": [
        {
          "name": "",
          "type": "uint256"
        }
      ],
      "payable": false,
      "stateMutability": "pure",
      "type": "function"
    }
  ],
  "bytecode": "0x6080604052600160005534801561001557600080fd5b5061015c806100256000396000f3fe608060405234801561001057600080fd5b506004361061005e576000357c0100000000000000000000000000000000000000000000000000000000900480630c55699c146100635780635965da7714610081578063771602f7146100c3575b600080fd5b61006b61010f565b6040518082815260200191505060405180910390f35b6100ad6004803603602081101561009757600080fd5b8101908080359060200190929190505050610115565b6040518082815260200191505060405180910390f35b6100f9600480360360408110156100d957600080fd5b810190808035906020019092919080359060200190929190505050610123565b6040518082815260200191505060405180910390f35b60005481565b600081600054019050919050565b600081830190509291505056fea165627a7a72305820d21b39de2d9ac701b8f35ca0bd7d7d7809aaaebb82f4d86db19950dbd318ba4d0029",
  "source": "pragma solidity ^0.5.3;\r\n\r\ncontract  ViewAndPure{\r\n    uint public x = 1;\r\n\r\n    function addToX(uint y) public view returns (uint){\r\n        return x + y;\r\n    }\r\n\r\n    function add(uint i, uint j)public pure returns (uint){\r\n        return i + j;\r\n    }\r\n}\r\n",
  "sourcePath": "C:/Users/Owner/Solidity_Learning/contracts/ViewAndPure.sol",
  "compiler": {
    "name": "solc",
    "version": "0.5.3+commit.10d17f24.Emscripten.clang"
  },
  "schemaVersion": "3.4.1",
  "updatedAt": "2021-06-03T01:37:13.871Z",
  "networkType": "ethereum",
  "devdoc": {
    "methods": {}
  },
  "userdoc": {
    "methods": {}
  }
}